:020000040000FA
:1000000098060020D5000000F5000000F700000071
:1000100000000000000000000000000000000000E0
:10002000000000000000000000000000F9000000D7
:100030000000000000000000FB000000FD000000C8
:10004000FF000000FF000000FF000000FF000000B4
:10005000FF000000FF000000FF000000FF000000A4
:10006000FF000000B1080000FF000000FF000000DA
:100070000D090000FF000000FF000000FF0000006D
:10008000FF000000FF000000FF000000FF00000074
:10009000FF000000FF000000FF000000FF00000064
:1000A000FF000000FF000000FF000000FF00000054
:1000B000FF000000FF000000FF000000FF00000044
:1000C0000348854600F054F800480047A518000092
:1000D000980600200A480B4901600B4901600B4952
:1000E00001600B4A0B491160002101600A488047FA
:1000F0000A480047FEE7FEE7FEE7FEE7FEE7FEE709
:1001000000010050590000001600000088000000A7
:1001100024000050A55A000099070000C10000000B
:1001200030B50B46014600202022012409E00D468F
:10013000D5409D4205D31D469540491B2546954017
:1001400040191546521E002DF1DC30BD03460B430D
:100150009B0703D009E008C9121F08C0042AFAD27D
:1001600003E00B78491C0370401C521EF9D2704703
:10017000064C0125064E05E02046E36807C82B43E0
:1001800098471034B442F7D3FFF79EFF5C2200007B
:100190007C2200000649C20F92008958C306DB0E7C
:1001A00001229A401143024AC30F9B00D15070476D
:1001B00008020050FEB50020029019A000680090CF
:1001C0001848046A0013044201D00020FEBD01203B
:1001D000C004044201D0144D00E0144D012040043D
:1001E000044201D02846F1E7032080032040800B21
:1001F00069460A5C0192E005C00D871C1F20400281
:100200002040400A861C019A72431146AA087A438C
:100210001046FFF785FF800002900298D6E70000A5
:10022000010202040002005000805101001BB700CF
:10023000FEB50020029019A0006800901848046ADA
:100240000013044201D00020FEBD0120C00404427E
:1002500001D0144D00E0144D01204004044201D0AF
:100260002846F1E7032080032040800B69460A5CA2
:100270000192E005C00D871C1F2040022040400A6B
:10028000861C019A72431146AA087A431046FFF76A
:1002900047FF800002900298D6E7000001020204A6
:1002A0000002005000805101001BB700F0B50B4662
:1002B000002100240025C600360F0FD0124E470043
:1002C000BF0FBF00F4192168C600370FC601F60E34
:1002D000B7400E46BE431E43314621608603360EAC
:1002E00010D0094E08360703BF0FBF00F519296863
:1002F0008603360EF6438705FF0EBE400E401643BA
:1003000031462960F0BD000010020050064904E0AB
:100310000A46491E002A00DC04E0044AD268024072
:100320008242F5D100BF704790D003000002005018
:1003300072B6704762B6704770B5034600200EE093
:10034000012484400C4209D01C6846000325B540B6
:10035000AC4346001546B5402C431C60401C0828A1
:10036000EED370BD08B500200090002270211C481B
:10037000FFF7E2FF002202211A48FFF7DDFF1A48CB
:100380008069C1B26846017017484069C1B26846C9
:10039000417015480069C1B26846817012488030CA
:1003A0004068C1B26846C1700078C006010E684658
:1003B000017040788006010E6846417080784006E2
:1003C000010E68468170C178C170017840780918C3
:1003D0006846807809186846C0780818C0B208BD19
:1003E00000400050004100500042005010B5012272
:1003F00009210C48FFF7A0FF0122082109484030DD
:10040000FFF79AFF0122042106488030FFF794FF8E
:10041000002005490860C860C862034980318860CF
:1004200010BD000000400050004200500648C06B64
:10043000064988820448806BC8820348406B088361
:100440000148006B4883704700420050280100209B
:10045000C206D20E01219140014A1160704700008E
:1004600000E100E010B5002819DA1A4A03071B0F53
:10047000083B9B089B00D2588307DC0EFF23A34058
:100480009A438B071B0E8407E40EA3401A43114BBB
:100490000407240F083CA408A4001A5118E00E4ACF
:1004A00003231B02D21883089B00D2588307DC0E5B
:1004B000FF23A3409A438B071B0E8407E40EA3403F
:1004C0001A43054B032424021B198408A4001A5163
:1004D00010BD00001CED00E000E100E010B50028B8
:1004E00019DA1A4A03071B0F083B9B089B00D258D6
:1004F0008307DC0EFF23A3409A438B071B0E840760
:10050000E40EA3401A43114B0407240F083CA4082F
:10051000A4001A5118E00E4A03231B02D2188308C4
:100520009B00D2588307DC0EFF23A3409A438B071E
:100530001B0E8407E40EA3401A43054B0324240238
:100540001B198408A4001A5110BD00001CED00E026
:1005500000E100E000B5034600F038FA180D1C2D4C
:100560003E4F505152535455565758595A5B5C5D43
:100570005E5F60616263012904D100BF01222A4BE2
:100580009A6006E0022904D100BF0022264B9A603F
:1005900000BF46E0012905D100BF0122224B803B6C
:1005A000DA6207E0022905D100BF00221E4B803B22
:1005B000DA6200BF35E0012905D100BF01221A4BE4
:1005C000803B1A6007E0022905D100BF0022164BCC
:1005D000803B1A6000BF24E0012905D100BF012241
:1005E000114B803BDA6007E0022905D100BF0022F1
:1005F0000D4B803BDA6000BF13E012E011E010E029
:100600000FE00EE00DE00CE00BE00AE009E008E08E
:1006100007E006E005E004E003E002E001E000E0BE
:1006200000BF00BF00BD00008042005010B5002494
:1006300028E060001549085A6100154A50526000D0
:100640001146085A6100134A515A884218D0600076
:100650000F49085A002804D102212046FFF77AFFEB
:1006600008E060000A49085A012803D10121204608
:10067000FFF770FF60000649085A6100054A5052B2
:10068000601CC4B2042CD4DB10BD00002801002083
:10069000100100200801002010B515480068042151
:1006A0000843134908601020FFF730FE0720104967
:1006B00008610846006AC90108430D4908620846F6
:1006C0000068012108430A4908600A4808620520B9
:1006D000FFF71CFE1A200649086107488860074892
:1006E000486100F027F8032005210907C86310BD01
:1006F0000002005017420000080001000020000125
:100700000B49020E92008958012282401143084A87
:10071000030E9B00D1501146020E9200895801220F
:1007200082409143024A030E9B00D1507047000063
:100730000800005070B51248006945076D0FFFF7BB
:1007400077FD10490860022D03D0A8000E490C580F
:1007500001E00C4804680A4880690007000F461C45
:1007600031462046FFF7DCFC084908600849074885
:1007700000684A108018FFF7D3FC0649086070BD76
:1007800000020050040100203C220000FC00002078
:1007900040420F000001002070470168012252070B
:1007A000114301607047000030B589B00546202232
:1007B000194901A8FFF7CAFC1848854206D1184814
:1007C0004069072109020840040A1AE01348203052
:1007D000854206D112484069072109030840040BED
:1007E0000FE01048854206D10D48406907210904F1
:1007F0000840040C05E00A48406907210905084043
:10080000040D022C03D10848006809B030BDA000D7
:1008100001A90858F9E70000EC21000000000140A0
:100820000002005000001140FC000020FEB505460B
:100830000F4616462846FFF7B7FF044600200190F2
:1008400000906008B04202D2022001901BE001201B
:100850008006844203D307200090E4080EE00120C4
:100860004006844203D303200090A40806E0012040
:100870000006844202D301200090640831462046DD
:10088000FFF74EFC0190009838432860019868609B
:10089000009A521C0198504301462046FFF740FC45
:1008A000FEBD0168012292071143016070470000FC
:1008B00010B500BF11488068C007C00F01281BD1C8
:1008C00000BF0E49886000BF0D480078002810D096
:1008D0000C480068401C0B490860084600680A493B
:1008E0000988884208DB01F08DF80020054908607E
:1008F00002E000200349086010BD00002000014014
:1009000004000020080000200C00002010B5094859
:10091000C069C007C00F02D001F07CF808E00548AC
:100920008069012109070840000F01D001F07AF821
:1009300010BD000000000540F0B585B004460D462E
:100940001E4801460EC9C0686E460EC603900027B9
:100950001B484069032109060840060E0020206359
:100960000320E060A06817490840A060012E04D170
:10097000FFF720FCB1006A465050002D1BD0B1009B
:100980006A4651586A0888182946FFF7C9FB871E2E
:100990000D4887420BD9B1006A465158EA008818C1
:1009A0002946FFF7BDFB0009801E606203E00320BB
:1009B00000073843606205B0F0BD00000C22000063
:1009C000000200500FFFF0FFFFFF000030B474463C
:1009D000641E2578641CAB4200D21D46635D5B003B
:1009E000E31830BC184702E008C8121F08C1002AEB
:1009F000FAD170477047002001E001C1121F002AA0
:100A0000FBD1704710B50246002009E01378521C54
:100A1000041263405B00054CE35A0402634098B241
:100A20000B464C1EA1B2002BF0DC10BDEC1F0000E9
:100A3000F8B504460D460027207804283FD1607899
:100A4000022806D0042812D005281AD006282DD155
:100A500022E008202070022060700020A070892011
:100A6000E070002020716071062028801EE00620C2
:100A70002070042060700020A070E07004202880A6
:100A800014E006202070052060700320A070E8208C
:100A9000E0700420288009E0062020706070552056
:100AA000A070F020E0700420288000BF00BF002666
:100AB000002E05D0304600F093FF074600E00327E4
:100AC0003846F8BD10B5002406480078012806D144
:100AD00005480068804700200249087000E00624AD
:100AE000204610BD44000020D8000020F0B585B09D
:100AF00006460D4600200190288805284DD17078C3
:100B000000020390B0780399084303900398401CB7
:100B100080B20390F078040230790443012C39DB71
:100B20007D200001844235DA3746002028800120EC
:100B300038707F1C2888401C28806007400F08D030
:100B40002046E117490F0919C910491CC9B2029181
:100B500006E02046E117490F09194905090E0291DF
:100B6000029838707F1C2888401C28800023224669
:100B70003846039900F088FC00900098002804D0C3
:100B8000009800F02DFF019009E0298802980818CC
:100B9000288004E00320019001E0032001900198E7
:100BA00005B0F0BDF0B585B006460D4600200190B9
:100BB000288805284CD1707800020390B0780399FA
:100BC000084303900398401C80B20390F07804021D
:100BD00030790443012C38DB7D200001844234DA73
:100BE000374600202880022038707F1C2888401C4F
:100BF00028806007400F08D02046E117490F0919E7
:100C0000C910491CC9B2029106E02046E117490FFC
:100C100009194905090E0291029838707F1C28882D
:100C2000401C288022463846039900F0DBFC0090E7
:100C30000098002804D0009800F0D2FE019009E04E
:100C4000298802980818288004E00320019001E018
:100C500003200190019805B0F0BDFEB505460C4695
:100C6000002001902088052838D168780002029081
:100C7000A8780299084302900298401C80B2029022
:100C8000E87806022E79012E25DB7D2E23DC2F4607
:100C900000202080032038707F1C2088401C20808A
:100CA0007006000E38707F1C2088401C20800023B6
:100CB00032463846029900F03DFD00900098002829
:100CC00004D0009800F08CFE019009E020887100AB
:100CD0004018208004E00320019001E003200190EF
:100CE0000198FEBDFEB505460C4600200190208807
:100CF000052838D1687800020290A8780299084344
:100D000002900298401C80B20290E878060228798E
:100D10000643012E24DB7D2E22DA2F460020208080
:100D2000042038707F1C2088401C20807006000E34
:100D300038707F1C2088401C20803246384602993B
:100D400000F05AFD00900098002804D0009800F0B0
:100D500047FE019009E0208871004018208004E0DF
:100D60000320019001E0032001900198FEBDF0B541
:100D700087B004460D460020029028880A2863DBCD
:100D8000607800020690A0780699084306900698BD
:100D9000401C80B20690E078060220790643607914
:100DA00000020590A0790599084305900598401C1C
:100DB00080B20590E0790702207A0743607A0490B8
:100DC000012E3FDB7D2E3DDC012F3BDB792F39DC13
:100DD00079000498814235D101233A4620460A30F1
:100DE000059900F0A7FC01900198002822D10394F6
:100DF00028801720039C2070039C601C0390288887
:100E0000401C28807006010E039801700398401C56
:100E100003902888401C28800023324606990398B6
:100E200000F088FC01900198002803D12888710007
:100E3000401828800198002806D0019800F0D0FDC5
:100E4000029001E003200290029807B0F0BD00007C
:100E500070B504460D46064802880649601CFFF737
:100E600075F903480088401C2880002070BD0000F0
:100E70004000002078040020FEB504460F46002004
:100E80000090388805282BD160780502A0780543AA
:100E9000681C85B2207900281FD1E078FF2802D095
:100EA000E078002819D1002069464871E078FF28D1
:100EB00002D10120087102E0002069460871012377
:100EC0001A46294601A800F0DFFA0646002E09D08E
:100ED000304600F085FD009004E00320009001E022
:100EE000032000900098FEBDF8B504460F46002090
:100EF00000903888052813D160780502A078054352
:100F0000681C85B201231A462946E01C00F012FC39
:100F10000646002E06D0304600F062FD009001E04B
:100F2000032000900098F8BDF0B585B005460F4647
:100F300000200190388805283DDD68780602A878F1
:100F40000643701C86B2E878040228790443687965
:100F500003906007400F08D02046E117490F091998
:100F6000C910491CC9B2029106E02046E117490F99
:100F700009194905090E0291012C19DB7B2000019A
:100F8000844215DC03990298884211D1012322463C
:100F90003146A81D00F078FA00900098002804D08F
:100FA000009800F01DFD019007E00520388004E066
:100FB0000320019001E003200190019805B0F0BDED
:100FC000FEB504460E46002001903088062829DB35
:100FD00060780702A0780743781C87B2E0780502A2
:100FE0002079054360790290012D18DB782D16DCFD
:100FF0006806010E0298814211D101232A46394622
:10100000A01D00F097FB00900098002804D00098E5
:1010100000F0E6FC019007E00520308004E00320AA
:10102000019001E0032001900198FEBDFFB581B061
:1010300005460C4616461F4600200090FF2C03D0A4
:10104000002C01DBF72C02DD0220009037E01D4868
:101050000470002D20D11C481C4908601C481D4903
:1010600008601D481D4908601D481E490860002091
:101070001D4908601D481E4908601E481E49086039
:101080001E481F4908603A4631460E4800780A9BC0
:1010900000F034F9009002E00220009000BF00BF91
:1010A000009800280BD100F047FD002802D1032052
:1010B000009004E01348057001201349087000985F
:1010C00005B0F0BDD10000204D140000D800002074
:1010D00071140000DC000020C1130000D4000020C7
:1010E00055130000E0000020E4000020291C00004F
:1010F000E8000020F91C0000EC000020B51C0000F6
:10110000F0000020D20000204400002038B5002567
:1011100070480078002801D0062038BD684600F0ED
:10112000F9FC01287CD168460378FFF74FFC0504E1
:10113000057ACE27CF00C9E0674A68496848694BFD
:101140001B6898470546002D0CD165480078664914
:101150000978884203D062480078FF2802D1022033
:1011600000F0F2FC082D08D15D4800785E4909784E
:10117000884202D1042000F0E7FCA7E0574800684D
:1011800000785A490870012059490870002418E075
:10119000E0005849085C002800D114E0E0005549FF
:1011A000085C5249097888420AD1E0005149401848
:1011B000494942684948006890474D49087002E033
:1011C000641C102CE4DB00BF45480078FF2826D0C3
:1011D00047480078002819D000203F49088043483C
:1011E0000078802108433C490A880988491C3A4B09
:1011F00019803A49096888543D48027818460188A0
:101200000088401C188035480068425432480288E3
:10121000324801683448007800F078FBC5B255E0E8
:1012200055E02E48006800783049087001203049A8
:101230000870002418E0E0002E49085C002800D166
:1012400014E0E0002B49085C2849097888420AD15B
:10125000E00028494018204942682048006890472B
:101260002349087002E0641C102CE4DB00BF1C481A
:101270000078FF2828D01E48007800281AD00020C7
:1012800015490880194800788021084312490A88C6
:101290000988491C104B1980104909688854144862
:1012A0000178184602880088401C18800B480068A6
:1012B00081540BE008480288084801680A48007811
:1012C0000D4B1B689847054600E000BF00BF00209B
:1012D00023E7000044000020CE000020C8000020CA
:1012E000CC000020E0000020D1000020CD00002034
:1012F000D000002048000020D4000020F8B50E46A1
:1013000014461F4600200090FFF712F83B460822C3
:101310002146304600F02CFC012802D0032000902A
:1013200011E04B200002844201D9232504E0610032
:101330000748FEF7F5FE0546A8B200F055FC012867
:1013400001D003200090FEF7F5FF0098F8BD0000E3
:10135000A07F1700F8B504460D4616460027FEF795
:10136000E7FF15480088042811DB1348018813485B
:1013700000F062FB00280AD11048007820700E4867
:101380000088C01E30800D48401C28600FE00A48CD
:10139000008804280ADB0948007920700648008884
:1013A00030800648801D2860082700E00527FEF7EA
:1013B000C1FF3846F8BD00003E0000207803002041
:1013C000F8B505460E46174600200090FEF7B0FF20
:1013D00019480078012829D1701E18490860012099
:1013E0001749088015480068057008460088C0192C
:1013F0000880084601881148006800F01DFB04467B
:101400000F4A1088421C0E4B1A800E4A14542112A7
:101410001A461088421C1A800A4A115401200A49AF
:1014200008700121002000F023FB01E0052000905E
:10143000FEF780FF0098F8BD35000020380000203E
:101440003C000020780300203400002010B5FEF797
:101450006FFF0020054908700021012000F008FB03
:1014600000F03EFBFEF766FF10BD000035000020D7
:1014700010B5FEF75DFF0021084600F0F9FA00F014
:1014800019FBFEF757FF10BDFFB589B005460E46A4
:101490001446002008902046E117490F0919C91089
:1014A000491C059100F034FB00280ED000F0C2FA70
:1014B00048494718012004900820039046480088B6
:1014C000C0B2029001200C9008E0444F012004902B
:1014D0000820039042480088C0B2029004988642D7
:1014E00072DB321903990498401882426CDC02992D
:1014F000701AC117490F0918C91007910299701A7B
:10150000C117490F0918C910C900411A06910C9852
:10151000002802D0012855D126E00EE0069881B2BD
:101520000798421CC31907920822184600F01CFCB9
:1015300028706D1C0598401E059005980028EDDC6C
:101540006D1E2046E117490F0919C910C900611A1B
:101550008CB228780821091B884028702878082137
:10156000091B084128702DE010E02B786D1C0698AF
:1015700080B201900798411CC01908220791009081
:10158000019900F00AFC0598401E05900598012875
:10159000EBDC2046E117490F0919C910C900611A8F
:1015A0008CB2002C0DD02B786D1CE2B2069880B264
:1015B00001900798411CC01907910090019900F013
:1015C000ECFB00BF02E0FFE70120089008980DB097
:1015D000F0BD0000680100201A000020310000204A
:1015E00012000020F0B589B005460E4614460020D2
:1015F00008902046E117490F0919C910491C0591A7
:1016000000F086FA00280CD000F014FA454947187B
:10161000012004900820039043480088C0B2029043
:1016200008E0424F012004900820039040480088C1
:10163000C0B20290049886426EDB32190399049876
:101640004018824268DC0299701AC117490F0918C4
:10165000C91007910299701AC117490F0918C910CA
:10166000C900411A069100F053FA00282DD010E06D
:101670002B786D1C069880B201900798411CC01908
:10168000082207910090019900F087FB0598401E01
:10169000059005980128EBDC2046E117490F091950
:1016A000C910C900611A8CB2002C37D02B786D1C80
:1016B000E2B2069880B201900798411CC0190791C8
:1016C0000090019900F069FB28E00EE0069881B2D5
:1016D0000798421CC31907920822184600F044FBE1
:1016E00028706D1C0598401E059005980028EDDCBB
:1016F0006D1E2046E117490F0919C910C900611A6A
:101700008CB228780821091B884028702878082185
:10171000091B0841287001E001200890089809B0D1
:10172000F0BD00005801002018000020300000200B
:1017300010000020FFB583B004460E460020029042
:1017400000F0E6F900280ED000F074F90001264FF1
:10175000C31901250820019024480088C0B20090D8
:101760000120069007E0224B012518200190214816
:101770000088C0B20090AE4230DBB718019828183C
:1017800087422BDC0098311A0698002802D00128E5
:1017900023D10FE00BE04800185A00122070641C9F
:1017A0004800185A2070641C491C501E82B2002A3E
:1017B000F1DC12E00EE02078641C00024F00D853E8
:1017C0002078641C4F00DF5B38434F00D853491C1E
:1017D000501E82B2002AEEDC00BF01E00120029020
:1017E000029807B0F0BD0000780200201E00002023
:1017F0002801002016000020FEB503460C461646C0
:101800000020029000F084F900280CD000F012F9BA
:101810000001204FC2190125082001901E480088B0
:10182000C0B2009007E01D4A0125082001901C4825
:101830000088C0B20090AC4227DBA7190198281895
:10184000874222DC0098211A1CE000F061F9002890
:101850000CD018785B1C00024F00D05318785B1C2A
:101860004F00D75B38434F00D05308E04800105A70
:10187000001218705B1C4800105A18705B1C491C41
:10188000701E86B2002EE0DC01E00120029002987A
:10189000FEBD0000780100201C000020180100207F
:1018A0001400002008B500BF06E059201549086063
:1018B0001620086088200860124800680128F4D1CA
:1018C00000BFFEF7E9FEFEF791FDFEF74BFD0E4966
:1018D000087000BF00200B49086000BF0023009380
:1018E0004B23DB010022084801781046FFF79EFBDE
:1018F000FFF7E8F805E0FFF709FCFEF797FEFEF7B3
:1019000095FDF8E70001005000000020F8B50646FC
:101910000F46144600200090FEF70AFD002C03D16C
:10192000FEF708FD0098F8BD28480078012846D148
:10193000274828490860FF20096808705520254974
:1019400009684870052023490968887000202149EA
:101950000968C8701F480068067100201D490968A1
:10196000487106201C4908801A4909681A4A1288D9
:10197000881822463946FEF7E9FB17480088001907
:10198000154908800846018812480068FFF73AF8B0
:1019900005462912104A1088421C0F4B1A800C4A27
:1019A00011541A461088421C1A80094A1554012005
:1019B0000A4908700121002000F05AF801E00520D2
:1019C0000090FEF7B7FC0098ADE70000350000205E
:1019D00078030020380000203C0000203400002064
:1019E0000146002904D0012904D0072906D103E0CB
:1019F000002005E0022003E0062001E0042000BFF3
:101A000000BF704710B502480068804710BD000055
:101A1000F000002010B502480068804710BD0000AB
:101A2000E800002010B502480068804710BD0000A3
:101A3000EC0000200020704770B502460B46FF24E2
:101A4000FF2508E01178521C69400748405C60405F
:101A500005460648445C18465E1EB3B20028F1D124
:101A60002002284370BD0000EC1D0000EC1E0000A9
:101A7000002806D00E4A526801231A430C4B5A60C4
:101A800005E00B4A526852085200094B5A6000297F
:101A900006D0074A526802231A43054B5A6005E0F4
:101AA000034A526802239A43014B5A607047000070
:101AB0000000054000BF07480068012189078843EE
:101AC0000449086000BF002003490870034908600A
:101AD00070470000200001400400002008000020A2
:101AE00010B5012007490870002007490860074821
:101AF000FEF753FE0920FEF7ABFC0448FEF7D1FECB
:101B000010BD00000400002008000020200001405B
:101B10000020704701460020054A1278002A06D0AE
:101B2000044A12780A700022014B1A700120704793
:101B3000020000200100002000200249087001205E
:101B4000704700000200002001460120024A107088
:101B500002480170012070470200002001000020AF
:101B600001460248006808700120704700000540E7
:101B7000F8B505460C4616461F461348FEF7C0FD4D
:101B80000022032109061148FEF790FB0F48FEF7DB
:101B900001FB21460E48FEF7CFFEFEF7C9FB0C48BD
:101BA0004068012108430A49486002210C20FEF7E1
:101BB00059FC00BF0C20012181400648016000BF94
:101BC000FEF7B8FB0120F8BD10000004103D80278F
:101BD0000000054000E100E00146024801600120EC
:101BE000704700000000054010B504460B48048013
:101BF0000B4A0121C9060B48FEF718FE0948FEF7FB
:101C0000CCFD03210920FEF769FC0920FEF720FC2A
:101C10000448FEF746FE012010BD00000C00002025
:101C2000204E00002000014038B500246846FFF730
:101C300097FF1D480078002806D001280AD0022806
:101C40001AD003282CD102E0FFF74AFF28E0FFF763
:101C500047FF25E000201549088069460A781349A6
:101C60000888411C114B198011490A5402200E4961
:101C70000870FFF735FF13E00C480088FF2809DCE7
:101C800069460A7809490888411C084B19800849A7
:101C90000A5402E0032004490870FFF721FF00BF47
:101CA00000BF204638BD0000350000203E00002067
:101CB0007803002010B500240E480078002804D0D6
:101CC000022807D003280BD109E00020FFF73CFFD2
:101CD000044606E00120FFF737FF044601E000E07C
:101CE00000BF00BFFFF7E6FE012002490870204652
:101CF00010BD00003500002010B500241748007802
:101D0000002802D0012825D104E000210120FFF79E
:101D1000AFFE1FE01248008800280FD01149096863
:101D20000878FFF759FF0F480068401C0D4908600C
:101D30000B480088401E0A4908800AE00320FFF78C
:101D400003FF044600210120FFF792FE0020034913
:101D5000087000BF00BF204610BD00003400002006
:101D60003C00002038000020F0B503460C46154624
:101D7000E208D000201A87B20120A840401E86B297
:101D8000995C501C185C000201430846384181B23E
:101D9000084630400146C8B2F0BDFFB582B00446E7
:101DA0000093C808C6008E1BB6B20196009B1F4662
:101DB000019EB740BEB200960126049FBE40761E2B
:101DC000B5B2C6008E1B2F46B740BDB2225C461C82
:101DD000A65D360232431646AE43009F3E4332466E
:101DE00022541612471CE65506B0F0BD00C18140D2
:101DF00001C0804101C0804100C1814001C08041DB
:101E000000C1814000C1814001C0804101C08041CA
:101E100000C1814000C1814001C0804100C18140BA
:101E200001C0804101C0804100C1814001C08041AA
:101E300000C1814000C1814001C0804100C181409A
:101E400001C0804101C0804100C1814000C181408A
:101E500001C0804101C0804100C1814001C080417A
:101E600000C1814000C1814001C0804101C080416A
:101E700000C1814000C1814001C0804100C181405A
:101E800001C0804101C0804100C1814000C181404A
:101E900001C0804101C0804100C1814001C080413A
:101EA00000C1814000C1814001C0804100C181402A
:101EB00001C0804101C0804100C1814001C080411A
:101EC00000C1814000C1814001C0804101C080410A
:101ED00000C1814000C1814001C0804100C18140FA
:101EE00001C0804101C0804100C1814000C0C101EA
:101EF000C30302C2C60607C705C5C404CC0C0DCD7A
:101F00000FCFCE0E0ACACB0BC90908C8D81819D9E9
:101F10001BDBDA1A1EDEDF1FDD1D1CDC14D4D51519
:101F2000D71716D6D21213D311D1D010F03031F109
:101F300033F3F23236F6F737F53534F43CFCFD3D39
:101F4000FF3F3EFEFA3A3BFB39F9F83828E8E92929
:101F5000EB2B2AEAEE2E2FEF2DEDEC2CE42425E5D9
:101F600027E7E62622E2E323E12120E0A06061A149
:101F700063A3A26266A6A767A56564A46CACAD6DF9
:101F8000AF6F6EAEAA6A6BAB69A9A86878B8B97969
:101F9000BB7B7ABABE7E7FBF7DBDBC7CB47475B599
:101FA00077B7B67672B2B373B17170B05090915189
:101FB0009353529296565797559594549C5C5D9DB9
:101FC0005F9F9E5E5A9A9B5B9959589888484989A9
:101FD0004B8B8A4A4E8E8F4F8D4D4C8C4484854559
:101FE000874746868242438341818040000021101A
:101FF000422063308440A550C660E7700881299173
:102000004AA16BB18CC1ADD1CEE1EFF1311210021A
:1020100073325222B5529442F772D66239931883C2
:102020007BB35AA3BDD39CC3FFF3DEE362244334E6
:1020300020040114E664C774A44485546AA54BB512
:1020400028850995EEE5CFF5ACC58DD553367226BA
:1020500011163006D776F6669556B4465BB77AA762
:1020600019973887DFF7FEE79DD7BCC7C448E55806
:102070008668A7784008611802282338CCC9EDD9B2
:102080008EE9AFF9488969990AA92BB9F55AD44A5A
:10209000B77A966A711A500A333A122AFDDBDCCB02
:1020A000BFFB9EEB799B588B3BBB1AABA66C877C26
:1020B000E44CC55C222C033C600C411CAEED8FFD52
:1020C000ECCDCDDD2AAD0BBD688D499D977EB66EFA
:1020D000D55EF44E133E322E511E700E9FFFBEEFA2
:1020E000DDDFFCCF1BBF3AAF599F788F8891A98164
:1020F000CAB1EBA10CD12DC14EF16FE18010A1004E
:10210000C230E3200450254046706760B98398933D
:10211000FBA3DAB33DC31CD37FE35EF3B10290129D
:10212000F322D2323542145277625672EAB5CBA509
:10213000A89589856EF54FE52CD50DC5E234C324ED
:10214000A01481046674476424540544DBA7FAB7DD
:102150009987B8975FE77EF71DC73CD7D326F2363D
:102160009106B01657667676154634564CD96DC929
:102170000EF92FE9C899E9898AB9ABA9445865488D
:1021800006782768C018E1088238A3287DCB5CDB7D
:102190003FEB1EFBF98BD89BBBAB9ABB754A545ADD
:1021A000376A167AF10AD01AB32A923A2EFD0FED49
:1021B0006CDD4DCDAABD8BADE89DC98D267C076C2D
:1021C000645C454CA23C832CE01CC10C1FEF3EFF1D
:1021D0005DCF7CDF9BAFBABFD98FF89F176E367E7D
:1021E000554E745E932EB23ED10EF01E001BB7000A
:1021F00000000000000000000000000000000000DF
:10220000102700000000000000805101001BB700F3
:10221000000000000000000000805101001BB7001A
:10222000000000000000000000805101001BB7000A
:10223000000000000000000000805101001BB700FA
:102240000000000080F0FA021027000000000000EB
:102250000000000000000000008051017C2200000E
:102260000000002018010000E6090000942300008F
:102270001801002080050000F609000000000000A1
:10228000000000000000000000000000010001004C
:1022900001000100010001000100010030000020E8
:1022A000310000201801002028010020000000005B
:1022B000000000000000000000000000000000001E
:1022C0000200000004000000310A000011000000BC
:1022D000510E000004000000E50C000003000000A7
:1022E0005B0C000010000000C10F000006000000A1
:1022F000E90E0000170000006F0D00000100000053
:10230000ED0A000005000000790E00000F0000003B
:10231000290F000002000000A50B000000000000D3
:1023200000000000000000000000000000000000AD
:10233000000000000000000000000000000000009D
:10234000000000000000000000000000000000008D
:10235000000000000000000000000000000000007D
:10236000000000000000000000000000000000006D
:10237000000000000000000080F0FA0232000000BF
:1023800080F0FA02000000000000000000000000E1
:042390000000000049
:04000005000000D522
:00000001FF
